:03000000020357A1
:0D000B00021DBF00010202030304040505ED
:0200330061F971
:03004300020500B3
:03005300020500A3
:10020000BB010689828A83E0225002E722BBFE02FC
:10021000E32289828A83E49322BB010CE58229F5DB
:1002200082E5833AF583E0225006E92582F8E6224A
:10023000BBFE06E92582F8E222E58229F582E58304
:100240003AF583E49322BB010689828A83F0225027
:1002500002F722BBFE01F322F8BB010DE58229F56E
:1002600082E5833AF583E8F0225006E92582C8F654
:1002700022BBFE05E92582C8F222BC000BBE002984
:10028000EF8DF084FFADF022E4CCF875F008EF2F8D
:10029000FFEE33FEEC33FCEE9DEC984005FCEE9D4A
:1002A000FE0FD5F0E9E4CEFD22EDF8F5F0EE842066
:1002B000D21CFEADF075F008EF2FFFED33FD4007C7
:1002C000985006D5F0F222C398FD0FD5F0EA22A38C
:1002D000F8E0C5F025F0F0E582158270021583E0A4
:1002E000C838F0E8227401FF3395E0FEFDFC0808F1
:1002F00008E62FFFF618E63EFEF618E63DFDF61876
:10030000E63CFCF622D083D082F8E49370127401AC
:1003100093700DA3A393F8740193F5828883E4731B
:100320007402936860EFA3A3A380DFEF4E6012EF27
:1003300060010EEDBB010B89828A83F0A3DFFCDE36
:10034000FA2289F05007F709DFFCA9F022BBFEFC76
:10035000F309DFFCA9F022787FE4F6D8FD75813639
:1003600002039E0206E3E493A3F8E493A34003F69A
:100370008001F208DFF48029E493A3F85407240CE9
:10038000C8C333C4540F4420C8834004F4568001CA
:1003900046F6DFE4800B010204081020408090053F
:1003A000FEE47E019360BCA3FF543F30E509541F77
:1003B000FEE493A360010ECF54C025E060A840B8CE
:1003C000E493A3FAE493A3F8E493A3C8C582C8CA4C
:1003D000C583CAF0A3C8C582C8CAC583CADFE9DE1F
:1003E000E780BED322D322E5AA20E0031223A42271
:1003F000C20490E6BAE022D32253D8EF32D322329D
:100400001201000200000040B40432F1390001037F
:1004100002010A06000200000040010009023C003F
:1004200001010080FA0904000006FF000000070532
:100430000103400010070581034000100705020278
:100440000002000705840200020007058602000280
:10045000000705080200020009023C0001010080BB
:10046000320904000006FF000000070501034000F8
:100470001007058103400010070502024000000735
:1004800005840240000007058602400000070508B9
:1004900002400000040309041003430079007000C7
:1004A00072006500730073002603440056004B0081
:1004B0002D003000350035003500350035003500A1
:1004C000350035003500370038003900410014038D
:1004D000440056004B00300035002D005300490009
:1004E0004D00000090E60AE054F0600A90E50DE04F
:1004F000C330E403D322D322FD7F11120C43EF2239
:10050000021235000212630002125100021275003D
:10051000021289000212B5000203FF000212F2006B
:100520000212F3000212F4000212F5000212F600A9
:100530000212F7000212F8000212F9000212FA0089
:100540000212FB000212F2000212FC000212FD0075
:100550000212FE000212FF0002130000021301004B
:10056000021302000212F2000212F2000212F20062
:100570000213030002130400021305000213060015
:1005800002130700021308000213090002130A00F5
:1005900002130B0002130C0002130D0002130E00D5
:1005A00002130F00021310000213110002131200B5
:1005B00002131300021314008E118F1290E600E054
:1005C00054187012E5122401FFE43511C313F5111C
:1005D000EF13F512801590E600E05418FFBF100BE2
:1005E000E51225E0F512E51133F511E5121512AE0D
:1005F00011700215114E60051206D280EE2241E004
:10060000D70144E0C4DEADBEEF49E070373131318F
:100610006900000E3149E0523737373700000000DB
:100620003744E05F1002054044E069A9307EEA41AA
:10063000E0DC0041E0DD010030040990E680E044A8
:100640000AF0800790E680E04408F07FDC7E051227
:1006500005B890E65D74FFF090E65FF05391EF907F
:10066000E680E054F7F02290E682E030E004E020FB
:10067000E60B90E682E030E119E030E71590E68085
:10068000E04401F07F147E001205B890E680E0544B
:10069000FEF022A907AE2DAF2E8F828E83A3E064D9
:1006A000037017AD0119ED7001228F828E83E07CFB
:1006B000002FFDEC3EFEAF0580DFE4FEFF2290E65A
:1006C00082E044C0F090E681F04387010000000022
:1006D00000227400F58690FDA57C05A3E582458384
:1006E00070F922E4F50BF50AF509F508C203C2001A
:1006F000C202C201120BEA752304752400752B0493
:10070000752C1275210475221C752904752A5875DB
:100710002D04752E94D2E843D82090E668E0440971
:10072000F090E65CE0443DF0D2AF12118990E68093
:10073000E020E104D204D13890E680E054F7F05391
:100740008EF8C203E4F50EF50CF50DE5B030E711B7
:10075000E50E7009750E01850CB3850DB571E78046
:1007600011E50E600DE4F50E85B30C85B50DF5B3FE
:10077000F5B5300104F1B4C2013003CF71E350CBC1
:1007800085B30F85B510E4F5B3F5B5C203D1BE202E
:10079000001690E682E030E704E020E1F090E68287
:1007A000E030E604E020E0E5D16771E5850FB38530
:1007B00010B5809790E6B9E07003020863147003E7
:1007C0000208AC24FE70030208FF24FB7003020839
:1007D0005F14700302085B14607914607A2405606A
:1007E0000302093771F7400302094290E6BBE02497
:1007F000FE602914603A24FD6011146029240670FB
:1008000050E52390E6B3F0E524803E1204E4400274
:100810002132E52B90E6B3F0E52C802DE52590E61E
:10082000B3F0E5268023E52790E6B3F0E5288019AC
:1008300090E6BAE0FF120693AA06A9077B01EA49EF
:100840004B600CEE90E6B3F0EF90E6B4F02142215D
:10085000322132D1BA2142F1BE214291E32142D16B
:10086000A52142F1C64002214290E6B8E0247F6013
:100870001514601924027032A200E43325E0FFA2AF
:1008800002E4334F8016E490E740F08014B1064054
:10089000047D0180027D00B116E0540190E740F034
:1008A000E4A3F0D1B27402F021422132F1C8400237
:1008B000214290E6B8E024FE601324026002214247
:1008C00090E6BAE0B40104C2008077806590E6BA91
:1008D000E0702AB10640047D0180027D00B116E07F
:1008E00054FEF090E6BCE05480131313541FFFE055
:1008F000540F2F90E683F0E04420F080458033F1E0
:10090000CA503F90E6B8E024FE601924027023909C
:10091000E6BAE0B40104D200802890E6BAE06402AE
:100920006020800EB10640047D0180027D00B1167A
:10093000800C90E6A080073144500790E6A0E04488
:1009400001F0A152D204C20590E6B9E012030509F4
:10095000B34009B54109B34209C04309F74409FD51
:100960004509FD4609FD4709FD4809FD490AB74A01
:100970000AB74B0AB74C0AB74D0AB74E09FD4F0AE2
:1009800001500A1C510A1C520AB7530AB7540A20D4
:10099000550A64560A9E570AA6580AB75B0AB75CFE
:1009A0000ABF5F0AD9600AEA610A4F640B5F6A00F6
:1009B000000AB780481203F0543F90E0BEF0414D6A
:1009C0001203F030E70CA3E090E0CEF0B137914392
:1009D000800F90E6BAE0543FFF7B017AE079CE9138
:1009E0006A90E0CFEFF090E0CFE0B40104B137417E
:1009F000B37D017F0161E5C204B15A61E7C20480A1
:100A00004CC204E490E68BF090E6A0E020E1F97B94
:100A1000017AE77940F1DD12118941E2C20441E235
:100A20001203F090E07DF0E024F9601724FA600BE7
:100A300014701890E04E745AF0801290E04E747D5D
:100A4000F0800A90E04E74FAF08002D1C241E212C6
:100A500003F0600843B3045390FB800643900453B3
:100A6000B3FB807EC20490E6B9E0FD90E04EE0FB6F
:100A7000E4F515F516FF918C90E6B9E0FD90E07D68
:100A8000E0F515E4F516FB7F01918C90E6B9E0FDE9
:100A9000751501751601E4FB7F02918C61E7120365
:100AA000F0FD7F39802FC2047F3991F290E0CEE0D3
:100AB000FD7F39D1FF61E7C2047D037F0261E5124A
:100AC00003F090E0DDF07F1191F290E0CEE044146D
:100AD000F0E0FD7F119143615BC20490E0B9E0302A
:100AE000E20280777D067F0461E51203F0703691A3
:100AF00062EF70067D027F0361E590E0CEE054F77F
:100B000091EB70067D027F0361E591FA70067D022C
:100B10007F0361E590E0CEE0543F1204F8703C7D25
:100B2000027F0361E59162EF70067D027F0361E55C
:100B300090E0CEE0440891EB70067D027F0361E512
:100B400091FA70067D027F0361E590E0CEE044C03B
:100B50001204F870067D027F0361E5D19961E7E434
:100B6000F51174402511F582E434E7F583E4F005CE
:100B700011E511B440EC90E740746AF0E4A3F09002
:100B8000E063E090E742F090E064E090E743F090AB
:100B9000E065E090E744F090E066E090E745F09093
:100BA000E0BFE090E746F090E0C0E090E747F090CB
:100BB000E0C1E090E748F0E490E68AF000000090A1
:100BC000E68B7410F0000000C204B152E490E063C0
:100BD000F0A3F0A3F0A3F090E0C1F090E0C0F0909B
:100BE000E0BFF08002D1CFA2042290E600E054E7FB
:100BF0004412F090E60174C0F090E60B7403F0F13B
:100C000013F1D3C206121315E490E0C2F090E05D38
:100C100004F0E490E05CF090E0D9F090E0D8F0903F
:100C2000E0DDF090E0D6F090E04DF0D1C253B1FE9F
:100C300053B1FD43B60F90E050E4F0A37440F0438D
:100C4000AF0722AE07AF05EEC394405012747F2E5B
:100C5000D19DEFF0EE24F070031213767F01227F16
:100C600000227AE079CE7B017F10EFC394405019C7
:100C7000EF24EE700890E0C3E090E091F0747F2FD5
:100C8000D19DE01202467F01227F00228F128D1338
:100C90008B14EF75F004A42440F974E735F0FA7B67
:100CA00001E4120246D1E2E513120258900002E577
:100CB00014120258E515F107E51290E0DE70057494
:100CC00004F08004E02404F0E5166016E490E68A5F
:100CD000F000000090E0DEE090E68BF0E490E0DED3
:100CE000B1512290E6BAE0F51FD322FD7F10914367
:100CF000EF227B017AE079CE816A7B017AE079CEBE
:100D00007F11916AEF2290E6BCE0547EFF7E00E006
:100D1000D394807C0022EC4EFEED4F240EF58274BD
:100D2000003EF583E493FF3395E0FEEF24A1FFEE50
:100D300034E68F82F5832290E6BAE0543FFF90E0DC
:100D4000CEE0FD22120258E490E68AF0740290E6AA
:100D50008BF090E6A0E04480F0227512017513E755
:100D60007514407E007F0E7D00AB12AA13A91412E9
:100D7000032BD18D12020054F712024644101202C6
:100D8000464420120246440412024654FC44021215
:100D9000024690E07DE0AB12AA13A9149000021263
:100DA000025890E04EE0900003120258900004E4D4
:100DB00012025890E0BEE0543F9000051202589095
:100DC000000512021914601024FD600C24FC600858
:100DD00024FC6004240C70627AE079D09166EF7094
:100DE0002BD18D120200FFC413135401FDEF54BF29
:100DF000FFED44015401C4333354C04F120246ABDB
:100E000012AA13A9147403120246803BAB12AA1350
:100E1000A9149000051202196401600D90E0D0E061
:100E20007F0120E3027F00800B90E0D0E07F002074
:100E3000E3027F0190000BEF800AAB12AA13A91402
:100E400090000BE4120258AB12AA13A91490000CE4
:100E500074FF12025890000D74FF1202589000089F
:100E600074FF12025890000974FF12025890E07F3C
:100E7000E090000A12025890000674131202589073
:100E800000077401120258D1B1740EA151AB12E5E2
:100E9000142401F9E43513FA22D1DBA144F582E4EC
:100EA00034E0F58322E51FD1AD04F0D32290E74072
:100EB000F0E490E68AF090E68B22E51ED1AD04F0D6
:100EC000D32290E04E74A5F090E07D740BF0227B6D
:100ED000017AE77940EFD1E2EDA1447B017AE7792D
:100EE00040E412024690000122AE03D1DBEF120271
:100EF00058900002ED120258EEF1077404A14EABB7
:100F000005AD077F4380E2900003120258E490E6AB
:100F10008AF02290E6047480F00000007402F00071
:100F200000007404F00000007406F0000000740873
:100F3000F0000000E4F000000090E682E054FCF0D5
:100F4000E044C4F0E490E670F000000090E6107415
:100F5000A0F000000090E611F000000090E612748E
:100F6000A2F000000090E61374E2F000000090E6AA
:100F700014F000000090E6157420F0000000E490EA
:100F8000E618F000000090E619F000000090E61A64
:100F9000F000000090E61BF000000000000090E66A
:100FA00002F000000090E603F000000090E64974B3
:100FB00082F0000000F0000000F1CC0203FD90E69A
:100FC000BAE0F51ED322D322D322D322E4F5B175A1
:100FD000B6FF225389F1438901538EF722AB017585
:100FE00017067D087C007F508F128C138D148A1594
:100FF0008B16E4F518E518C39517504512114E40AD
:101000000122C3E51394014007E513312B4001226F
:101010003129400611431161C3220516E516AE15AC
:101020007002051514F5828E83E0310B4001221108
:1010300043AF12114B0514E5147002051305188017
:10104000B4D32290E678E04440F0228F191161AFCA
:10105000193156310F1143116190E678E030E1EF1C
:101060002290E678E020E6F9228F128C138D148B03
:10107000158A16891790E67AE054FEF0314E400743
:1010800090E6787440F022C3E51394014007E5131D
:10109000312B40012231294004114380C490E6786D
:1010A0007480F0E51225E04401310B400122E5187F
:1010B000B4010690E6787420F090E679E0F51931F5
:1010C0000F400122E4F519E519C39518503BE518C6
:1010D00014FFB5190690E6787440F0E51824FEB5C3
:1010E000190690E6787420F090E679E0AB15AA1620
:1010F000A917851982758300120258EF65196005DA
:10110000310F400122051980BED32290E679F031DB
:101110007090E678E0FB20E004316470F4EB20E2AC
:1011200004317C7002C322D322E51490E679F031B9
:101130007090E678E0FB20E004316470F4EB20E28C
:1011400004317C7002C322EBD320E101C322116180
:10115000AF12315680D990E6787480F0EF25E09098
:10116000E679F022781A74FF1202E7EC4D4E4F2216
:1011700074FFF51DF51CF51B751A0022AF1DAE1C82
:10118000AD1BAC1AEC4D4E4F2290E0D07404F0A38E
:1011900074B6F07B017AE079C87518067D087C008A
:1011A0007F5011695062E4F9E9C39418505CE91367
:1011B00013543F24C8511EC4511540027E07E91341
:1011C00013543FFDEF24302EFF510C29F582E43AF1
:1011D000F583EFF0E924015127F074C82D511E5119
:1011E0001540027E07EF24302EFFE92402FDE43390
:1011F000FC510C2DF582EA3CF583EFF0E924035114
:1012000027F0740429F980A0C322D32290E0D0E013
:10121000FAA3E0FB22540FFFD394097E0022F5824B
:10122000E434E0F583E022FFE433FEEB2FF582EABD
:101230003EF583E422C0E0C083C082D201514A74EB
:1012400001F0D082D083D0E032F05391EF90E65D90
:1012500022C0E0C083C082514A7404F0D082D0839F
:10126000D0E032C0E0C083C082514A7402F0D08224
:10127000D083D0E032C0E0C083C082D203514A7430
:1012800008F0D082D083D0E032C0E0C083C0828535
:101290002925852A2651E785212785222851AB510A
:1012A000497410F0D082D083D0E03285288285271F
:1012B00083A3740722C0E0C083C08290E680E03040
:1012C000E71185212585222651E7852927852A28AA
:1012D00051ABF090E0507402F0A3E451497420F057
:1012E000D082D083D0E032852682852583A3740204
:1012F000F022323232323232323232323232323220
:1013000032323232323232323232323232323232BD
:101310003232323232E490E04FF090E0C37421F088
:10132000E490E05EF090E06FF090E06EF090E07E90
:10133000F0FF74632FF582E434E0F583E4F0747910
:101340002FF582E434E0F583E4F00FBF04E47F3F3F
:1013500090E080E4F0A3DFFC90E07F74FFF090E089
:10136000B97403F0E490E067F053B5FD53B5FE4364
:10137000B00143B0022290E05EEFF030E708E0C435
:10138000540790E067F090E05EE04404F02253B52B
:10139000FE90E05EE05403601414600D146006805B
:1013A00000C2B1D2B1C2B1D2B1C2B1D2B1C2B1D216
:1013B000B1228E148F15B1F6D10F24FE6020146077
:1013C0000714601A24037041915353B0FDE5B054E3
:1013D00001F51643B002B1E3602CD12F802890E0D4
:1013E0005EE030E2149153C2B1D2B1E5B05401F5E0
:1013F00016B1E36011D12F800D718EE4FFE490E609
:101400007CF00FBF04F70227B0718E1227F3F02291
:10141000C2B1A2B092F0D2B1C2B1A2B092F1D2B137
:10142000C2B1A2B092F2D2B1C2B1A2B092F3D2B123
:10143000C2B1A2B092F4D2B1C2B1A2B092F5D2B10F
:10144000C2B1A2B092F6D2B1C2B1A2B092F7D2B1FB
:10145000AFF02253B5FE911090E67CEFF091109022
:10146000E67CEFF0911090E67CEFF0911090E67C36
:10147000EFF0228D14EB4A6006B1378F158006908D
:10148000E068E0F515E5146002B1F6D10F718E90B9
:10149000E07EE024FE601C24FE601824037030917E
:1014A000D4E515600543B001800353B0FEC2B1D24C
:1014B000B1801990E05EE030E21291D4E51560054C
:1014C00043B001800353B0FEC2B1D2B10227B012C3
:1014D00027F3F02243B50190E67BE0FF91F190E61F
:1014E0007BE0FF91F190E67BE0FF91F190E67BE0FD
:1014F000FF8F358535F0C2B1A2F092B0D2B1C2B142
:10150000A2F192B0D2B1C2B1A2F292B0D2B1C2B144
:10151000A2F392B0D2B1C2B1A2F492B0D2B1C2B130
:10152000A2F592B0D2B1C2B1A2F692B0D2B1C2B11C
:10153000A2F792B0D2B1228E178F18E4F5190518D0
:10154000E51870020517B164B1EF70020517B164B8
:10155000B1EF70020517B164B1EF70020517B16405
:101560005401FF2214F5828E83E0FFB173EF251939
:10157000F519228F33753400E53330E0020534E588
:1015800033C313F533E53330E0020534E533C313D9
:10159000F533E53330E0020534E533C313F533E5C5
:1015A0003330E0020534E533C313F533E53330E07F
:1015B000020534E533C313F533E53330E002053477
:1015C000E533C313F533E53330E0020534E533C3C7
:1015D00013F533E53330E0020534E533C313F53357
:1015E000AF3422718EAF15AE14B137EF65162205F8
:1015F00018E518AE172253B0FE43B50100001227BC
:10160000CA1227CA90E04FE0FF91F153B5FE227154
:101610008ED13790E0C0E025E0FF90E0BFE04FFFC3
:1016200090E0C1E0FE25E025E04F90E07EF02290C2
:10163000E0C3E04408F022D14990E0BFD146A3D1F5
:1016400046A3F0D2B122F0D2B1C2B1A2B0E43322AB
:1016500090E05EE0FF90E026EFF090E027E4F0906D
:10166000E05EE0FFEF4404FF90E05EEFF090E04FBB
:101670007499F090E0287499F090E06374DBF09036
:10168000E0647406F090E065740CF090E066747BA2
:10169000F07EE07F63B13790E068EFF07B017AE0A5
:1016A0007963C003C002C0017B017AE079298B17FE
:1016B0008A188919D001D002D003121DF67B017A55
:1016C000E0792990E049EBF0A3EAF0A3E9F0121CDD
:1016D0000290E063E4F090E04F74A5F07B017AE0C3
:1016E0007963AE02AF01EEFF7E00EF54FFF59D7B04
:1016F000017AE07963AF01EF54FFF59E7EE07F63EE
:1017000071B243B5017FA991F1718ED137718E43CA
:10171000B5017F0091F17F0091F17F0091F17F5041
:1017200091F153B0FEC2B1D2B1000053B0FD75319A
:1017300000E531C39404400302195890E027E0FF0C
:10174000EF6003021958E531703D43B3045390FB39
:1017500043B50243B50143B00143B002753200E521
:1017600032C394045012AF3274792FF582E434E01E
:10177000F583E4F0053280E77F647E00121CF943B4
:10178000900453B3FB800343B50175F099C2B1A235
:10179000F092B0D2B1C2B1A2F192B0D2B1C2B1A2B4
:1017A000F292B0D2B1C2B1A2F392B0D2B1C2B1A2A0
:1017B000F492B0D2B1C2B1A2F592B0D2B1C2B1A28C
:1017C000F692B0D2B1C2B1A2F792B0D2B153B5FE87
:1017D000C2B1D2B1C2B1A2B0E433FF90E0BFEFF02A
:1017E000D2B1C2B1A2B0E433FF90E0C0EFF0D2B109
:1017F000C2B1A2B0E433FF90E0C1EFF0D2B1C2B108
:10180000D2B143B50175F0DBC2B1A2F092B0D2B152
:10181000C2B1A2F192B0D2B1C2B1A2F292B0D2B131
:10182000C2B1A2F392B0D2B1C2B1A2F492B0D2B11D
:10183000C2B1A2F592B0D2B1C2B1A2F692B0D2B109
:10184000C2B1A2F792B0D2B175F006C2B1A2F092C5
:10185000B0D2B1C2B1A2F192B0D2B1C2B1A2F292F1
:10186000B0D2B1C2B1A2F392B0D2B1C2B1A2F492DD
:10187000B0D2B1C2B1A2F592B0D2B1C2B1A2F692C9
:10188000B0D2B1C2B1A2F792B0D2B175F00CC2B170
:10189000A2F092B0D2B1C2B1A2F192B0D2B1C2B1B3
:1018A000A2F292B0D2B1C2B1A2F392B0D2B1C2B19F
:1018B000A2F492B0D2B1C2B1A2F592B0D2B1C2B18B
:1018C000A2F692B0D2B1C2B1A2F792B0D2B175F085
:1018D0007BC2B1A2F092B0D2B1C2B1A2F192B0D2A9
:1018E000B1C2B1A2F292B0D2B1C2B1A2F392B0D25F
:1018F000B1C2B1A2F492B0D2B1C2B1A2F592B0D24B
:10190000B1C2B1A2F692B0D2B1C2B1A2F792B0D236
:10191000B1C2B190E068E0FFEF24FF92B0D2B1C253
:10192000B153B5FE90E0BFE0FFEF601690E0C0E07D
:10193000FFEF700E90E0C1E0FFEF700690E02774BB
:1019400001F07B017AE0792990E049EBF0A3EAF01D
:10195000A3E9F0053102173190E027E0FFEF7002B4
:1019600061D843B5017F8B1214F112138E12163712
:1019700012138E43B5017B017AE0795F90E049EB69
:10198000F0A3EAF0A3E9F090E049E0FBA3E475F0EE
:10199000011202CFA9F0FA120200FF1214F190E036
:1019A00049E0FBA3E475F0011202CFA9F0FA12029C
:1019B00000FF1214F190E049E0FBA3E475F001127E
:1019C00002CFA9F0FA120200FF1214F190E049E0F0
:1019D000FBA3E475F0011202CFA9F0FA120200FF96
:1019E0001214F153B0FEC2B1D2B1000053B0FD9059
:1019F000E0BFE0FFEF601690E0C0E0FFEF700E90F8
:101A0000E0C1E0FFEF700690E0277401F090E0275E
:101A1000E0FFEF7002612E43B5017FBB1214F1129B
:101A2000138E12163712138E43B5017B017AE079BB
:101A30006990E049EBF0A3EAF0A3E9F090E049E017
:101A4000FBA3E475F0011202CFA9F0FA120200FF25
:101A50001214F190E049E0FBA3E475F0011202CF0B
:101A6000A9F0FA120200FF1214F190E049E0FBA382
:101A7000E475F0011202CFA9F0FA120200FF12146D
:101A8000F190E049E0FBA3E475F0011202CFA9F068
:101A9000FA120200FF1214F143B001C2B1D2B10038
:101AA0000053B0FD90E0BFE0FFEF601890E0C0E0B1
:101AB000FFEF701090E0C1E0FFEF700890E0277436
:101AC00001F0806A7B017AE07969AE02AF01EEFF36
:101AD0007E00EF54FFF59A7B017AE07969AF01EF60
:101AE00054FFF59B7FBB1214F112138E121637129E
:101AF000138E43B50190E67BE0FF1214F190E67B74
:101B0000E0FF1214F190E67BE0FF1214F190E67B07
:101B1000E0FF1214F190E068E0FFEF600543B001D0
:101B2000800353B0FEC2B1D2B1000053B0FD90E0CB
:101B300027E0FFEF700261D890E027E4F07F147E89
:101B40000091F9910290E063E4F090E04F74A5F009
:101B50007B017AE07963AE02AF01EEFF7E00EF54C5
:101B6000FFF59D7B017AE07963AF01EF54FFF59EAD
:101B70007EE07F631213B2753200E532C3940450E5
:101B800020AF3274632FF582E434E0F583E0FFAEDA
:101B90003274742EF582E434E0F583EFF005328080
:101BA000D990E0277401F090E063E0FFEFB4772371
:101BB00090E064E0FFEFB4141A90E065E0FFEFB44A
:101BC000A01190E066E0FFEFB42B0890E0277401CD
:101BD000F0800590E027E4F090E027E0FFEF600E52
:101BE00090E0C37431F090E06E7401F0800B90E0EF
:101BF000C37427F090E06EE4F090E027E0FFEF245C
:101C0000FF22911443B5017F9E1214F17FE7121455
:101C1000F153B5FE43B50290E05DE0FFEF70028145
:101C2000F243B00143B501C2B1D2B1C2B1D2B1C227
:101C3000B1D2B1C2B1D2B1C2B1D2B1C2B1D2B1C2CC
:101C4000B1D2B1C2B1D2B1C2B1D2B1C2B1D2B1C2BC
:101C5000B1D2B1C2B1D2B1C2B1D2B1C2B1D2B1C2AC
:101C6000B1D2B1C2B1D2B1C2B1D2B1C2B1D2B1C29C
:101C7000B1D2B1C2B1D2B1C2B1D2B1C2B1D2B1C28C
:101C8000B1D2B1C2B1D2B1C2B1D2B1C2B1D2B1C27C
:101C9000B1D2B1C2B1D2B1C2B1D2B1C2B1D2B1C26C
:101CA000B1D2B1C2B1D2B1C2B1D2B1C2B1D2B1C25C
:101CB000B1D2B1C2B1D2B1C2B1D2B1C2B1D2B1C24C
:101CC000B1D2B1C2B1D2B1C2B1D2B1C2B1D2B1C23C
:101CD000B1D2B1C2B1D2B1C2B1D2B1C2B1D2B1C22C
:101CE000B1D2B1C2B1D2B1C2B1D2B1C2B1D2B1538B
:101CF000B5FE90E06E7401F022C20690E0DAE4F0E6
:101D0000A304F0B10C200603208CFA22AD07AC0628
:101D1000ED4C7003D20622C206ECD3943F40067C01
:101D2000007D018015EDAE047802C333CE33CED8EA
:101D3000F9FDAC066305FF6304FFEDF58AECF58C55
:101D4000C28DD2A9D2AFD28C22C20674BFF58A74DA
:101D50006380EB7F107E277C007D0A12027A90E080
:101D6000DAEEF0A3EFF04E700790E0DAF0A304F0A3
:101D700080D7E5AA20E002D322B153000000000082
:101D800000E5AA30E0033006F2300602C322B1BA01
:101D9000D32290E051E090E695F0E5AA20E302D34B
:101DA00022B153000000000000E5AA30E303300632
:101DB000F2300602C322B1BAD322C28CC28D22C035
:101DC000E0C083C082C0D075D000C00690E0DBE0E8
:101DD00024FFF090E0DAE034FFF0E07002A3E0705E
:101DE00008C28CC28DD2068002B149D006D0D0D0B4
:101DF00082D083D0E0328B148A158916E4FFE4FE8A
:101E0000D1335401AB17AA18A919120246D133C312
:101E10001312024674012519F519E43518F5180E48
:101E2000BE08DD74012516F516E43515F5150FBF4E
:101E300004CC22AB14AA15A91602020090E05EE0C1
:101E4000FF90E000EFF090E001E4F090E05EE0FF52
:101E5000EF4404FF90E05EEFF090E04F7499F09053
:101E6000E0027499F090E06374DBF090E064740633
:101E7000F090E065740CF090E066747BF07EE07F9B
:101E80006312153790E068EFF07B017AE07963C068
:101E900003C002C0017B017AE079038B178A18899D
:101EA00019D001D002D003B1F67B017AE07903901A
:101EB000E023EBF0A3EAF0A3E9F0752F00E52FC3D0
:101EC000940440030220CA90E001E0FFEF600302A7
:101ED00020CAE52F703C43B3045390FB43B5024343
:101EE000B50143B00143B002753000E530C394043E
:101EF0005012AF3074792FF582E434E0F583E4F0CA
:101F0000053080E77F647E0091F943900453B3FB72
:101F1000800343B50175F099C2B1A2F092B0D2B17D
:101F2000C2B1A2F192B0D2B1C2B1A2F292B0D2B11A
:101F3000C2B1A2F392B0D2B1C2B1A2F492B0D2B106
:101F4000C2B1A2F592B0D2B1C2B1A2F692B0D2B1F2
:101F5000C2B1A2F792B0D2B153B5FEC2B1D2B1C2F2
:101F6000B1A2B092F0D2B1C2B1A2B092F1D2B1C2DC
:101F7000B1A2B092F2D2B1A2F0E433FF8F36C2B177
:101F8000D2B143B50175F0DBC2B1A2F092B0D2B1CB
:101F9000C2B1A2F192B0D2B1C2B1A2F292B0D2B1AA
:101FA000C2B1A2F392B0D2B1C2B1A2F492B0D2B196
:101FB000C2B1A2F592B0D2B1C2B1A2F692B0D2B182
:101FC000C2B1A2F792B0D2B175F006C2B1A2F0923E
:101FD000B0D2B1C2B1A2F192B0D2B1C2B1A2F2926A
:101FE000B0D2B1C2B1A2F392B0D2B1C2B1A2F49256
:101FF000B0D2B1C2B1A2F592B0D2B1C2B1A2F69242
:10200000B0D2B1C2B1A2F792B0D2B175F00CC2B1E8
:10201000A2F092B0D2B1C2B1A2F192B0D2B1C2B12B
:10202000A2F292B0D2B1C2B1A2F392B0D2B1C2B117
:10203000A2F492B0D2B1C2B1A2F592B0D2B1C2B103
:10204000A2F692B0D2B1C2B1A2F792B0D2B175F0FD
:102050007BC2B1A2F092B0D2B1C2B1A2F192B0D221
:10206000B1C2B1A2F292B0D2B1C2B1A2F392B0D2D7
:10207000B1C2B1A2F492B0D2B1C2B1A2F592B0D2C3
:10208000B1C2B1A2F692B0D2B1C2B1A2F792B0D2AF
:10209000B190E068E0FF8FF0C2B1A2F092B0D2B18F
:1020A000C2B153B5FEE5365407FFEFB4010690E028
:1020B000017401F07B017AE0790390E023EBF0A357
:1020C000EAF0A3E9F0052F021EBD90E001E0FFEF6A
:1020D0007002614543B5017F8B1214F112138E1209
:1020E000163712138E43B5017B017AE0795F90E0D9
:1020F00023EBF0A3EAF0A3E9F090E023E0FBA3E4F4
:1021000075F0011202CFA9F0FA120200FF1214F1C9
:1021100090E023E0FBA3E475F0011202CFA9F0FAEE
:10212000120200FF1214F190E023E0FBA3E475F02B
:10213000011202CFA9F0FA120200FF1214F190E08E
:1021400023E0FBA3E475F0011202CFA9F0FA12021A
:1021500000FF1214F153B0FEC2B1D2B1000053B06F
:10216000FD90E0BFE0FFEF601690E0C0E0FFEF7091
:102170000E90E0C1E0FFEF700690E0017401F09076
:10218000E001E0FFEF7002614543B5017FBB12142F
:10219000F112138E12163712138E43B5017B017A9A
:1021A000E0796990E023EBF0A3EAF0A3E9F090E096
:1021B00023E0FBA3E475F0011202CFA9F0FA1202AA
:1021C00000FF1214F190E023E0FBA3E475F001128C
:1021D00002CFA9F0FA120200FF1214F190E023E0FE
:1021E000FBA3E475F0011202CFA9F0FA120200FF7E
:1021F0001214F190E023E0FBA3E475F0011202CF8A
:10220000A9F0FA120200FF1214F143B001C2B1D2D8
:10221000B1000053B0FD90E0BFE0FFEF601890E028
:10222000C0E0FFEF701090E0C1E0FFEF700890E0B9
:10223000017401F0806A7B017AE07969AE02AF0136
:10224000EEFF7E00EF54FFF59A7B017AE07969AFEB
:1022500001EF54FFF59B7FBB1214F112138E12167F
:102260003712138E43B50190E67BE0FF1214F19014
:10227000E67BE0FF1214F190E67BE0FF1214F19090
:10228000E67BE0FF1214F190E068E0FFEF600543A9
:10229000B001800353B0FEC2B1D2B1000053B0FD13
:1022A00090E001E0FFEF7002614590E063E4F090A0
:1022B000E04F74A5F07B017AE07963AE02AF01EEE6
:1022C000FF7E00EF54FFF59D7B017AE07963AF015B
:1022D000EF54FFF59E7EE07F631213B290E0C3E0FF
:1022E000FFEF20E230753000E530C394045020AF9A
:1022F0003074632FF582E434E0F583E0FFAE307490
:10230000742EF582E434E0F583EFF0053080D99047
:10231000E0017401F090E066E0FFEF54FFFFEFB4DE
:102320000E1E90E065E0FFEF54F0FFEFB410119047
:10233000E063E0FFEFB4690890E0017401F080050C
:1023400090E001E4F090E001E0FFEF600E90E0C368
:102350007431F090E06E7401F0800B90E0C374274C
:10236000F090E06EE4F090E001E0FFEF24FF2290B7
:10237000E04CE4F0121650E433FF90E04CEFF090A4
:10238000E04CE0FFEF600990E04CE0FFEF24FF221B
:10239000121E3CE433FF90E04CEFF090E04CE0FF85
:1023A000EF24FF22E490E0C3F090E090E0FF20E211
:1023B000028170F16BEF54FB90E090F090F001E03F
:1023C00090E05FF090F002E090E060F090F003E0C9
:1023D00090E061F090F004E090E062F090F006E0B0
:1023E00090E069F090F007E090E06AF090F008E08B
:1023F00090E06BF090F009E090E06CF0716F90E08D
:10240000B9E0500F4404F090E0CE74E0F0A3747093
:10241000F0800D54FBF090E0CE74E0F0A37452F025
:10242000F16B90E0D4F10E9409EE9400502D90E001
:10243000CEE475F0011202CF85F082F583E0FD74E1
:10244000002FF58274F43EF583EDF090E0D5E004C2
:10245000F0700690E0D4E004F080C7E490E694F0D9
:1024600000000090E0D5E090E695F0000000E10368
:10247000E5AA30E302C1FDF155000000F138A3F0F8
:10248000A3F074F0F59A7400F59B7AF479007EF469
:102490007F0074F4F59D7400F59EA3E07004A3E042
:1024A000641E702E90F000E0B4F027A3E0B4F02298
:1024B000121C02F13090E67C7421F1207002F115BB
:1024C00090E0D2E07004A3E0640F70E9F14E740F65
:1024D000804C90E0D4E07004A3E06410702990F088
:1024E00000E0B40F22A3E0B4011DF13090E67BF1CF
:1024F0001C7002F11590E0D2E07004A3E06410704B
:10250000EBF14E7410801790E0D4E07002A3E070FD
:102510001290E0C37440F090E67CF0F14E04F0F1CC
:1025200003C1E6751201E5127002C1E690E0D4E045
:10253000FEA3E090E0D0F1874002C1D1E490E0C377
:10254000F10AED9FEC9E4009F103121D725002F159
:1025500046F19E90E04FF163700690E0D0E004F009
:1025600090E04FE030E202C123E4F511F10B90E07E
:10257000D1E09F90E0D0E09E400EF103121D72501A
:1025800007F155000000F138F19EFFF192EFF16381
:10259000700690E0D0E004F00511E511C39404400A
:1025A000CB90E05EE030E72B90E063E090E093F0CA
:1025B00090E064E090E094F090E065E090E095F0C9
:1025C00090E066E090E096F090E0C3E090E067F184
:1025D000C0802675130A74E0F59A7463F59BE49045
:1025E000E0C3F07EE07F637B01FA7D011214731576
:1025F00013E5136004F17360DD90E0C3E04420F163
:102600000AF17C4013EE90E694F0000000121D9257
:1026100050067AF47900F12890E0C3F11C7002F1C1
:1026200015A12C90E05EE030E72F90E093E090E081
:1026300063F090E094E090E064F090E095E090E04A
:1026400065F090E096E090E066F090E0C3E0FF90E7
:10265000E067E04420F1C2802675130AE490E0C3ED
:10266000F074E0F59D7463F59E7EE0FF1213B215E1
:1026700013E5136004F17360E390E0C3E04420903D
:10268000E067F090E050E0FEA3E090E0D2F18750E8
:102690001374002DF58274F43CF59D74002DF582C1
:1026A000E582F59EE4F511E511C394054002A12CE5
:1026B000F10BF17C400FEE90E694F0000000121D4B
:1026C000925002F128F192F11C7002F1150511806F
:1026D000D6F103E5AA20E009F155000000F138A188
:1026E00026E4F512A12690E0D2E090E694F00000F6
:1026F0000090E0D3E090E695F00000002290E0C367
:102700007480F090E6497482F022F090E050E0FE90
:10271000A3E0FFC32290E0D2E004F022E090E67C48
:10272000F090E0D3E004F02274F4F59D7400F59E7F
:10273000E490E0D2F0A3F02290E690E0FE90E0D4A6
:10274000E04EF0A3E0F0E490E0D0F0A3F02290E0BF
:10275000D2E4F0A32290E691E0FF90E0D4E4F0A36D
:10276000EFF022F090E0D1E004F022E490E0D4F029
:10277000A3F02290E0C3E0540764072290E0D3E086
:102780009F90E0D2E09E22FFE0FCA3E0FDC39FEC1F
:102790009E2274632511F582E434E0F5832290E0F3
:1027A000D0E0FEA3E02400F58274F03EF583E02241
:1027B00053B5FE43B00143B00290E0C3E090E07E29
:1027C000FFE0FEEF4E90E0C3F022C2B1D2B1C2B141
:1027D000D2B1C2B1D2B1C2B1D2B1C2B1D2B1C2B121
:1027E000D2B1C2B1D2B1C2B1D2B1C2B1D2B1C2B111
:1027F000D2B12253B5FE43B00143B00290E0C3E032
:0328000044072268
