:03000000020357A1
:03000B00021D686B
:0200330061FA70
:03004300020500B3
:03005300020500A3
:10020000BB010689828A83E0225002E722BBFE02FC
:10021000E32289828A83E49322BB010CE58229F5DB
:1002200082E5833AF583E0225006E92582F8E6224A
:10023000BBFE06E92582F8E222E58229F582E58304
:100240003AF583E49322BB010689828A83F0225027
:1002500002F722BBFE01F322F8BB010DE58229F56E
:1002600082E5833AF583E8F0225006E92582C8F654
:1002700022BBFE05E92582C8F222BC000BBE002984
:10028000EF8DF084FFADF022E4CCF875F008EF2F8D
:10029000FFEE33FEEC33FCEE9DEC984005FCEE9D4A
:1002A000FE0FD5F0E9E4CEFD22EDF8F5F0EE842066
:1002B000D21CFEADF075F008EF2FFFED33FD4007C7
:1002C000985006D5F0F222C398FD0FD5F0EA22A38C
:1002D000F8E0C5F025F0F0E582158270021583E0A4
:1002E000C838F0E8227401FF3395E0FEFDFC0808F1
:1002F00008E62FFFF618E63EFEF618E63DFDF61876
:10030000E63CFCF622D083D082F8E49370127401AC
:1003100093700DA3A393F8740193F5828883E4731B
:100320007402936860EFA3A3A380DFEF4E6012EF27
:1003300060010EEDBB010B89828A83F0A3DFFCDE36
:10034000FA2289F05007F709DFFCA9F022BBFEFC76
:10035000F309DFFCA9F022787FE4F6D8FD75812F40
:1003600002039E0206EFE493A3F8E493A34003F68E
:100370008001F208DFF48029E493A3F85407240CE9
:10038000C8C333C4540F4420C8834004F4568001CA
:1003900046F6DFE4800B010204081020408090053F
:1003A000B8E47E019360BCA3FF543F30E509541FBD
:1003B000FEE493A360010ECF54C025E060A840B8CE
:1003C000E493A3FAE493A3F8E493A3C8C582C8CA4C
:1003D000C583CAF0A3C8C582C8CAC583CADFE9DE1F
:1003E000E780BE00010202030304040505E5AA201C
:1003F000E003121D9F22D322D32253D8EF32D322FF
:100400001201000200000040B4042BF13900010386
:1004100002010A06000200000040010009023C003F
:1004200001010080FA0904000006FF000000070532
:100430000103400010070581034000100705020278
:100440000002000705840200020007058602000280
:10045000000705080200020009023C0001010080BB
:10046000320904000006FF000000070501034000F8
:100470001007058103400010070502024000000735
:1004800005840240000007058602400000070508B9
:1004900002400000040309041003430079007000C7
:1004A0007200650073007300260347004600580081
:1004B00032004C0050003500350035003500350065
:1004C000350035003500370038003900410014038D
:1004D0004600580032004C0050002D0047004500F7
:1004E0004E00000090E60AE054F0600A90E50DE04E
:1004F000C330E403D322D322C20490E6BAE022320E
:100500000212000002122E0002121C000212400011
:1005100002125400021280000204FF000212BD0009
:100520000212BE000212BF000212C0000212C1007D
:100530000212C2000212C3000212C4000212C5005D
:100540000212C6000212BD000212C7000212C80049
:100550000212C9000212CA000212CB000212CC0021
:100560000212CD000212BD000212BD000212BD0037
:100570000212CE000212CF000212D0000212D100ED
:100580000212D2000212D3000212D4000212D500CD
:100590000212D6000212D7000212D8000212D900AD
:1005A0000212DA000212DB000212DC000212DD008D
:1005B0000212DE000212DF0041E0B00144E09DDEE5
:1005C000ADBEEF41E0980041E0990041E09A00495A
:1005D000E049373131316900000E3149E02B3737BE
:1005E0003737000000003744E0381002050044E0CF
:1005F00042A9307EEA41E0B50041E0B601008E0C30
:100600008F0D90E600E054187012E50D2401FFE410
:10061000350CC313F50CEF13F50D801590E600E0D3
:100620005418FFBF100BE50D25E0F50DE50C33F573
:100630000CE50D150DAE0C7002150C4E6005120682
:10064000DE80EE2230040990E680E0440AF0800764
:1006500090E680E04408F07FDC7E051205FE90E61F
:100660005D74FFF090E65FF05391EF90E680E05408
:10067000F7F02290E682E030E004E020E60B90E61E
:1006800082E030E119E030E71590E680E04401F0C7
:100690007F147E001205FE90E680E054FEF022A951
:1006A00007AE2DAF2E8F828E83A3E064037017AD4B
:1006B0000119ED7001228F828E83E07C002FFDEC0A
:1006C0003EFEAF0580DFE4FEFF2290E682E044C0FC
:1006D000F090E681F04387010000000000227400E2
:1006E000F58690FDA57C05A3E582458370F922E49B
:1006F000F50BF50AF509F508C203C200C202C201F2
:10070000120BB8752304752400752B04752C127513
:10071000210475221C752904752A58752D04752E1F
:1007200094D2E843D82090E668E04409F090E65C73
:10073000E0443DF0D2AF12115490E680E020E10495
:10074000D204D14490E680E054F7F0538EF8C2030F
:1007500071ED300104F183C2013003F471F650F001
:10076000C203D1CA20001690E682E030E704E02000
:10077000E1F090E682E030E604E020E0E5D173713C
:10078000F880CD90E6B9E0700302083314700302DC
:10079000087C24FE70030208CF24FB700302082F9C
:1007A00014700302082B14607A14607B2405600324
:1007B000020907120F79400302091290E6BBE024F8
:1007C000FE602914603A24FD60111460292406702B
:1007D00050E52390E6B3F0E524803E91E440030227
:1007E0000902E52B90E6B3F0E52C802DE52590E697
:1007F000B3F0E5268023E52790E6B3F0E5288019DD
:1008000090E6BAE0FF12069FAA06A9077B01EA4913
:100810004B600CEE90E6B3F0EF90E6B4F0211221BD
:10082000022102D1A52112F1902112F1882112D1C9
:10083000902112F17B4002211290E6B8E0247F6003
:100840001514601924027032A200E43325E0FFA2DF
:1008500002E4334F8016E490E740F08014B1F44096
:10086000047D0180027D00D11AE0540190E740F040
:10087000E4A3F0D19D7402F021122102F17D400227
:10088000211290E6B8E024FE6013240260022112D7
:1008900090E6BAE0B40104C2008077806590E6BAC1
:1008A000E0702AB1F440047D0180027D00D11AE09D
:1008B00054FEF090E6BCE05480131313541FFFE085
:1008C000540F2F90E683F0E04420F080458033F110
:1008D0007F503F90E6B8E024FE6019240270239018
:1008E000E6BAE0B40104D200802890E6BAE06402DF
:1008F0006020800EB1F440047D0180027D00D11A99
:10090000800C90E6A080073114500790E6A0E044E8
:1009100001F0C112D204C20590E6B9E01203050944
:10092000834009854109834209904309C74409CDA1
:100930004509CD4609CD4709CD4809CD490A874A21
:100940000A874B0A874C0A874D0A874E09CD4F0903
:10095000D15009EC5109EC520A87530A875409F027
:10096000550A34560A6E570A76580A875B0A875C1E
:100970000A8F5F0AA9600ABA610A1F640B2D6A0018
:10098000000A8780481204F8543F90E097F0411D18
:100990001204F830E70CA3E090E0A7F0D14B9111DE
:1009A000800F90E6BAE0543FFF7B017AE079A7918F
:1009B0003890E0A8EFF090E0A8E0B40104D14B41FA
:1009C000837D017F0161B3C20491B161B5C204802E
:1009D0004CC204E490E68BF090E6A0E020E1F97BC5
:1009E000017AE77940F1A212115441B2C20441B236
:1009F0001204F890E056F0E024F9601724FA600B36
:100A000014701890E027745AF0801290E027747DDB
:100A1000F0800A90E02774FAF08002D1C141B2124E
:100A200004F8600843B3045390FB800643900453DA
:100A3000B3FB807EC20490E6B9E0FD90E027E0FBC6
:100A4000E4F510F511FF915A90E6B9E0FD90E056FB
:100A5000E0F510E4F511FB7F01915A90E6B9E0FD55
:100A6000751001751101E4FB7F02915A61B5120402
:100A7000F8FD7F39802FC2047F39B1E090E0A7E014
:100A8000FD7F39D1AD61B5C2047D037F0261B31230
:100A900004F890E0B6F07F11B1E090E0A7E04414D4
:100AA000F0E0FD7F1191116129C20490E092E030E5
:100AB000E20280757D067F0461B31204F8703591FF
:100AC00030EF70067D027F0361B390E0A7E054F73A
:100AD000B1D970067D027F0361B3B1E870067D0273
:100AE0007F0361B390E0A7E0543FB1D2703B7D0239
:100AF0007F0361B39130EF70067D027F0361B39095
:100B0000E0A7E04408B1D970067D027F0361B3B16C
:100B1000E870067D027F0361B390E0A7E044C0B1B6
:100B2000D270067D027F0361B3D13B61B5E4F50C61
:100B30007440250CF582E434E7F583E4F0050CE518
:100B40000CB440EC90E740746AF0E4A3F090E03C11
:100B5000E090E742F090E03DE090E743F090E03E27
:100B6000E090E744F090E03FE090E745F090E098B7
:100B7000E090E746F090E099E090E747F090E09A47
:100B8000E090E748F0E490E68AF000000090E68B01
:100B90007410F0000000C204D112E490E03CF0A315
:100BA000F0A3F0A3F090E09AF090E099F090E09834
:100BB000F08002D158A2042290E600E054E74412EB
:100BC000F090E60174C0F090E60B7403F0D1CEF122
:100BD00098C2061212E0E490E09BF090E03604F038
:100BE000E490E035F090E0B2F090E0B1F090E0B643
:100BF000F090E0AFF090E026F0D1C153B1FE53B1D8
:100C0000FD43B60F90E029E4F0A37440F043AF0732
:100C100022AE07AF05EEC39440501274582ED1880F
:100C2000EFF0EE24F070031213417F01227F0022C7
:100C30007AE079A77B017F10EFC394405019EF242D
:100C4000EE700890E09CE090E06AF074582FD18834
:100C5000E01202467F01227F00228F0D8D0E8B0F46
:100C6000EF75F004A42440F974E735F0FA7B01E451
:100C7000120246D16BE50E120258900002E50F12E7
:100C80000258E510D1B5E50D90E0B770057404F099
:100C90008004E02404F0E5116016E490E68AF00098
:100CA000000090E0B7E090E68BF0E490E0B7D1115F
:100CB00022750D01750EE7750F407E007F0E7D00D9
:100CC000B1CB12032BD13F12020054F7120246445B
:100CD000101202464420120246440412024654FCFA
:100CE000440212024690E056E0B1CB90000212029C
:100CF0005890E027E0900003120258900004E4129C
:100D0000025890E097E0543F90000512025890007E
:100D10000512021914601024FD600C24FC600824E4
:100D2000FC6004240C705A7AE079A99134EF7027A2
:100D3000D13F120200FFC413135401FDEF54BFFF53
:100D4000ED44015401C4333354C04F120246B1CBB9
:100D500074031202468033B1CB900005120219646D
:100D600001600D90E0A9E07F0120E3027F00800B8D
:100D700090E0A9E07F0020E3027F0190000BEF806C
:100D800006B1CB90000BE4120258B1CB90000C746A
:100D9000FF12025890000D74FF1202589000087460
:100DA000FF12025890000974FF12025890E058E0B8
:100DB00090000A120258900006E4120258900007B0
:100DC0007401120258D19C740E8046AB0DAA0EA974
:100DD0000F22FD7F119111EF22FD7F109111EF2263
:100DE0007B017AE079A781387B017AE079A77F11CE
:100DF0009138EF2290E6BCE0547EFF7E00E0D39471
:100E0000807C0022120258E490E68AF0740290E698
:100E10008BF090E6A0E04480F022EC4EFEED4F24F3
:100E2000E3F58274033EF583E493FF3395E0FEEF30
:100E300024A1FFEE34E68F82F58322D16480C5AB16
:100E40000DE50F2401F9E4350EFA2290E6BAE054DC
:100E50003FFF90E0A7E0FD227B017AE77940EFD1E8
:100E60006BED80A07B017AE77940E41202469000A6
:100E70000122AE03D164EF120258900002ED12027B
:100E800058EED1B574048086F582E434E0F583220F
:100E9000E51AD19804F0D32290E740F0E490E68A76
:100EA000F090E68B22E519D19804F0D322AB05AD82
:100EB000077F4380BD900003120258E490E68AF059
:100EC0002290E02774A5F090E056740BF02290E693
:100ED000047480F00000007402F00000007404F05C
:100EE0000000007406F00000007408F0000000E448
:100EF000F000000090E682E054FCF0E044C4F0E42E
:100F000090E670F000000090E61074A0F000000081
:100F100090E611F000000090E61274A2F0000000CC
:100F200090E61374E2F000000090E614F000000078
:100F300090E6157420F0000000E490E618F0000040
:100F40000090E619F000000090E61AF00000009012
:100F5000E61BF000000000000090E602F000000038
:100F600090E603F000000090E6497482F000000073
:100F7000F0000000F1810203FED322D322D322D35A
:100F800022E4F5B175B6FF2290E6BAE0F51AD32255
:100F900090E6BAE0F519D3225389F1438901538EC3
:100FA000F722AB017512067D087C007F508F0D8CF7
:100FB0000E8D0F8A108B11E4F513E513C3951250B3
:100FC0004B1210F4400122C3E50E94014008E50ED7
:100FD0001210FE4001221210FC40081210EC1210F8
:100FE00024C3220511E511AE107002051014F5821C
:100FF0008E83E01210CE4001221210ECAF0D110EC4
:10100000050FE50F7002050E051380AED3228F1475
:101010001124AF14312111D211EC112490E678E0A3
:1010200030E1EF2290E678E020E6F9228F0D8C0E79
:101030008D0F8B108A11891290E67AE054FEF01120
:10104000F4400790E6787440F022C3E50E94014026
:1010500007E50E11FE40012211FC400411EC80C492
:1010600090E6787480F0E50D25E0440111CE400152
:1010700022E513B4010690E6787420F090E679E05A
:10108000F51411D2400122E4F514E514C395135070
:101090003BE51314FFB5140690E6787440F0E513B1
:1010A00024FEB5140690E6787420F090E679E0AB63
:1010B00010AA11A912851482758300120258EF65D7
:1010C00014600511D2400122051480BED32290E69F
:1010D00079F0313B90E678E0FB20E004312F70F4AA
:1010E000EB20E20431477002C322D32290E678E07D
:1010F0004440F0221124AF0D31218006E50F90E627
:1011000079F0313B90E678E0FB20E004312F70F479
:10111000EB20E20431477002C322EBD320E101C38C
:101120002290E6787480F0EF25E090E679F022785E
:101130001574FF1202E7EC4D4E4F2274FFF518F5BF
:1011400017F51675150022AF18AE17AD16AC15ECD5
:101150004D4E4F2290E0A97404F0A374B6F07B01C9
:101160007AE079A17513067D087C007F50112C5020
:1011700062E4F9E9C39418505CE91313543F24A1C5
:1011800031E9C431E040027E07E91313543FFDEF1B
:1011900024302EFF31D729F582E43AF583EFF0E9C8
:1011A000240131F2F074A12D31E931E040027E07D3
:1011B000EF24302EFFE92402FDE433FC31D72DF576
:1011C00082EA3CF583EFF0E9240331F2F07404295C
:1011D000F980A0C322D32290E0A9E0FAA3E0FB2289
:1011E000540FFFD394097E0022F582E434E0F583A6
:1011F000E022FFE433FEEB2FF582EA3EF583E422A2
:10120000C0E0C083C082D20151157401F0D082D0F9
:1012100083D0E032F05391EF90E65D22C0E0C083CE
:10122000C08251157404F0D082D083D0E032C0E087
:10123000C083C08251157402F0D082D083D0E032D6
:10124000C0E0C083C082D20351157408F0D082D0B0
:1012500083D0E032C0E0C083C082852925852A265C
:1012600051B2852127852228517651147410F0D06F
:1012700082D083D0E032852882852783A374072219
:10128000C0E0C083C08290E680E030E71185212570
:1012900085222651B2852927852A285176F090E0AB
:1012A000297402F0A3E451147420F0D082D083D0CA
:1012B000E032852682852583A37402F02232323201
:1012C00032323232323232323232323232323232FE
:1012D00032323232323232323232323232323232EE
:1012E000E490E028F090E09C7421F0E490E037F086
:1012F00090E048F090E047F090E057F0FF743C2F0A
:10130000F582E434E0F583E4F074522FF582E4349E
:10131000E0F583E4F00FBF04E47F3F90E059E4F090
:10132000A3DFFC90E05874FFF090E0927403F0E4C7
:1013300090E040F053B5FD53B5FE43B00143B00219
:101340002290E037EFF030E708E0C4540790E04027
:10135000F090E037E04404F022913F715FB1045314
:10136000B5FE90E037E05403601414600D1460067D
:101370008000C2B1D2B1C2B1D2B1C2B1D2B1C2B198
:10138000D2B1228E0F8F10B1DCB1F324FE60201495
:10139000600714601A2403704091E453B0FDE5B077
:1013A0005401F51143B002B1BF602CD113802890D5
:1013B000E037E030E21491E4C2B1D2B1E5B05401BB
:1013C000F511B1BF6011D113800D715FE4FFE4909E
:1013D000E67CF00FBF04F7E149715FD144F022C20F
:1013E000B1A2B092F0D2B1C2B1A2B092F1D2B1C268
:1013F000B1A2B092F2D2B1C2B1A2B092F3D2B1C254
:10140000B1A2B092F4D2B1C2B1A2B092F5D2B1C23F
:10141000B1A2B092F6D2B1C2B1A2B092F7D2B1AF3E
:10142000F02243B50190E67BE0FF913F90E67BE040
:10143000FF913F90E67BE0FF913F90E67BE0FF8FDE
:101440001F851FF0C2B1A2F092B0D2B1C2B1A2F119
:1014500092B0D2B1C2B1A2F292B0D2B1C2B1A2F3F3
:1014600092B0D2B1C2B1A2F492B0D2B1C2B1A2F5DF
:1014700092B0D2B1C2B1A2F692B0D2B1C2B1A2F7CB
:1014800092B0D2B1228D0FEB4A6006B1138F10805B
:101490000690E041E0F510E50F6002B1DCB1F371B8
:1014A0005F90E057E024FE601C24FE601824037067
:1014B0002F9122E510600543B001800353B0FEC2B6
:1014C000B1D2B1801990E037E030E2129122E510FC
:1014D000600543B001800353B0FEC2B1D2B1E1490F
:1014E000D144F02253B5FE71DF90E67CEFF071DF5E
:1014F00090E67CEFF071DF90E67CEFF071DF90E634
:101500007CEFF022B1D590E098B1D2A3B1D2A3F094
:10151000D2B1228E128F13E4F5140513E513700275
:101520000512B140B1CB70020512B140B1CB7002CF
:101530000512B140B1CB70020512B1405401FF2237
:1015400014F5828E83E0FFB14FEF2514F514228F3E
:101550001D751E00E51D30E002051EE51DC313F5D7
:101560001DE51D30E002051EE51DC313F51DE51D3B
:1015700030E002051EE51DC313F51DE51D30E00238
:10158000051EE51DC313F51DE51D30E002051EE532
:101590001DC313F51DE51D30E002051EE51DC31337
:1015A000F51DE51D30E002051EE51DC313F51DE523
:1015B0001D30E002051EE51DC313F51DAF1E22718F
:1015C0005FAF10AE0FB113EF6511220513E513AE37
:1015D0001222F0D2B1C2B1A2B0E4332253B0FE4322
:1015E000B5010000D11BD11B90E028E0FF913F53D3
:1015F000B5FE22715FB10490E099E025E0FF90E034
:1016000098E04FFF90E09AE0FE25E025E04F90E063
:1016100057F02290E09CE04408F022C2B1D2B1C25F
:10162000B1D2B1C2B1D2B1C2B1D2B1C2B1D2B1C2E2
:10163000B1D2B1C2B1D2B1C2B1D2B1C2B1D2B1C2D2
:10164000B1D2B12253B5FE43B00143B00290E09C49
:10165000E0440722D16443B5017F9E913F7FE7912B
:101660003F53B5FE43B50290E036E0FFEF7002E174
:101670004243B00143B501C2B1D2B1C2B1D2B1C28D
:10168000B1D2B1C2B1D2B1C2B1D2B1C2B1D2B1C282
:10169000B1D2B1C2B1D2B1C2B1D2B1C2B1D2B1C272
:1016A000B1D2B1C2B1D2B1C2B1D2B1C2B1D2B1C262
:1016B000B1D2B1C2B1D2B1C2B1D2B1C2B1D2B1C252
:1016C000B1D2B1C2B1D2B1C2B1D2B1C2B1D2B1C242
:1016D000B1D2B1C2B1D2B1C2B1D2B1C2B1D2B1C232
:1016E000B1D2B1C2B1D2B1C2B1D2B1C2B1D2B1C222
:1016F000B1D2B1C2B1D2B1C2B1D2B1C2B1D2B1C212
:10170000B1D2B1C2B1D2B1C2B1D2B1C2B1D2B1C201
:10171000B1D2B1C2B1D2B1C2B1D2B1C2B1D2B1C2F1
:10172000B1D2B1C2B1D2B1C2B1D2B1C2B1D2B1C2E1
:10173000B1D2B1C2B1D2B1C2B1D2B1C2B1D2B15340
:10174000B5FE90E0477401F02253B5FE43B001436B
:10175000B00290E09CE090E057FFE0FEEF4E90E09A
:101760009CF0228B0F8A108911E4FFE4FEF1A05453
:1017700001AB12AA13A914120246F1A0C31312025C
:101780004674012514F514E43513F5130EBE08DD77
:1017900074012511F511E43510F5100FBF04CC22AA
:1017A000AB0FAA10A91102020090E037E0FF90E011
:1017B00000EFF090E001E4F090E037E0FFEF440448
:1017C000FF90E037EFF090E0287499F090E0027419
:1017D00099F090E03C74DBF090E03D7406F090E00E
:1017E0003E740CF090E03F747BF07EE07F3CB113E0
:1017F00090E041EFF07B017AE0793CC003C002C089
:10180000017B017AE079038B128A138914D001D00D
:1018100002D0031217637B017AE0790390E023EB97
:10182000F0A3EAF0A3E9F0751B00E51BC3940440A4
:1018300002414D90E001E0FFEF6002414DE51B7079
:101840003C43B3045390FB43B50243B50143B0019D
:1018500043B002751C00E51CC394045012AF1C7405
:10186000522FF582E434E0F583E4F0051C80E77F35
:10187000647E0091A543900453B3FB800343B501FC
:1018800075F099C2B1A2F092B0D2B1C2B1A2F192F8
:10189000B0D2B1C2B1A2F292B0D2B1C2B1A2F392AF
:1018A000B0D2B1C2B1A2F492B0D2B1C2B1A2F5929B
:1018B000B0D2B1C2B1A2F692B0D2B1C2B1A2F79287
:1018C000B0D2B153B5FEC2B1D2B1C2B1A2B0E4330D
:1018D000FF90E098EFF0D2B1C2B1A2B0E433FF9034
:1018E000E099EFF0D2B1C2B1A2B0E433FF90E09A38
:1018F000EFF0D2B1C2B1D2B143B50175F0DBC2B1E4
:10190000A2F092B0D2B1C2B1A2F192B0D2B1C2B142
:10191000A2F292B0D2B1C2B1A2F392B0D2B1C2B12E
:10192000A2F492B0D2B1C2B1A2F592B0D2B1C2B11A
:10193000A2F692B0D2B1C2B1A2F792B0D2B175F014
:1019400006C2B1A2F092B0D2B1C2B1A2F192B0D2AD
:10195000B1C2B1A2F292B0D2B1C2B1A2F392B0D2EE
:10196000B1C2B1A2F492B0D2B1C2B1A2F592B0D2DA
:10197000B1C2B1A2F692B0D2B1C2B1A2F792B0D2C6
:10198000B175F00CC2B1A2F092B0D2B1C2B1A2F165
:1019900092B0D2B1C2B1A2F292B0D2B1C2B1A2F3AE
:1019A00092B0D2B1C2B1A2F492B0D2B1C2B1A2F59A
:1019B00092B0D2B1C2B1A2F692B0D2B1C2B1A2F786
:1019C00092B0D2B175F07BC2B1A2F092B0D2B1C2E6
:1019D000B1A2F192B0D2B1C2B1A2F292B0D2B1C270
:1019E000B1A2F392B0D2B1C2B1A2F492B0D2B1C25C
:1019F000B1A2F592B0D2B1C2B1A2F692B0D2B1C248
:101A0000B1A2F792B0D2B1C2B190E041E0FFEF24B1
:101A1000FF92B0D2B1C2B153B5FE90E098E0FFEFB3
:101A2000601690E099E0FFEF700E90E09AE0FFEF13
:101A3000700690E0017401F07B017AE0790390E098
:101A400023EBF0A3EAF0A3E9F0051B012A90E001E3
:101A5000E0FFEF7002817B43B5017F8B1213594386
:101A6000B5017B017AE0793890E023EBF0A3EAF04E
:101A7000A3E9F090E023E0FBA3E475F0011202CFAC
:101A8000A9F0FA120200FF12143F90E023E0FBA33A
:101A9000E475F0011202CFA9F0FA120200FF12144D
:101AA0003F90E023E0FBA3E475F0011202CFA9F020
:101AB000FA120200FF12143F90E023E0FBA3E4754A
:101AC000F0011202CFA9F0FA120200FF12143F53E4
:101AD000B0FEC2B1D2B1000053B0FD90E098E0FF7B
:101AE000EF601690E099E0FFEF700E90E09AE0FF53
:101AF000EF700690E0017401F090E001E0FFEF70FC
:101B000002817B43B5017FBB12135943B5017B01B1
:101B10007AE0794290E023EBF0A3EAF0A3E9F090B9
:101B2000E023E0FBA3E475F0011202CFA9F0FA1262
:101B30000200FF12143F90E023E0FBA3E475F001E4
:101B40001202CFA9F0FA120200FF12143F90E02314
:101B5000E0FBA3E475F0011202CFA9F0FA12020033
:101B6000FF12143F90E023E0FBA3E475F0011202A2
:101B7000CFA9F0FA120200FF12143F43B001C2B124
:101B8000D2B1000053B0FD90E098E0FFEF601890F4
:101B9000E099E0FFEF701090E09AE0FFEF7008909E
:101BA000E0017401F080617B017AE07942AE02AF1E
:101BB00001EEFF7E00EF54FFF59A7B017AE0794257
:101BC000AF01EF54FFF59B7FBB12135943B5019052
:101BD000E67BE0FF12143F90E67BE0FF12143F909B
:101BE000E67BE0FF12143F90E67BE0FF12143F908B
:101BF000E041E0FFEF600543B001800353B0FEC257
:101C0000B1D2B1000053B0FD90E001E0FFEF606B96
:101C100090E03CE4F090E02874A5F07B017AE07954
:101C20003CAE02AF01EEFF7E00EF54FFF59D7B015D
:101C30007AE0793CAF01EF54FFF59E7EE07F3C12E5
:101C4000138390E09CE0FFEF20E230751C00E51C60
:101C5000C394045020AF1C743C2FF582E434E0F5AB
:101C600083E0FFAE1C744D2EF582E434E0F583EF83
:101C7000F0051C80D990E0017401F090E001E0FFD4
:101C8000EF600E90E09C7431F090E0477401F080BA
:101C90000B90E09C7427F090E047E4F090E001E0C6
:101CA000FFEF24FF22C20690E0B3E4F0A304F0911A
:101CB000B8200603208CFA22AD07AC06ED4C700369
:101CC000D20622C206ECD3943F40067C007D018000
:101CD00015EDAE047802C333CE33CED8F9FDAC0691
:101CE0006305FF6304FFEDF58AECF58CC28DD2A984
:101CF000D2AFD28C22C20674BFF58A746380EB7FA8
:101D0000107E277C007D0A12027A90E0B3EEF0A3E9
:101D1000EFF04E700790E0B3F0A304F080D7E5AA8F
:101D200020E002D32291FF000000000000E5AA306D
:101D3000E0033006F2300602C322B163D322ED90F5
:101D4000E695F0E5AA20E302D32291FF000000000F
:101D50000000E5AA30E3033006F2300602C322B1E8
:101D600063D322C28CC28D22C0E0C083C082C0D0A7
:101D700075D000C00690E0B4E024FFF090E0B3E03E
:101D800034FFF0E07002A3E07008C28CC28DD2066E
:101D9000800291F5D006D0D0D082D083D0E032E45A
:101DA00090E09CF090E069E0FF20E202C171122116
:101DB000CDEF54FB90E069F090F001E090E038F056
:101DC00090F002E090E039F090F003E090E03AF01B
:101DD00090F004E090E03BF090F006E090E042F0FC
:101DE00090F007E090E043F090F008E090E044F0DD
:101DF00090F009E090E045F01217A990E092E050D1
:101E00000F4404F090E0A774E0F0A37449F0800D53
:101E100054FBF090E0A774E0F0A3742BF01221CDF6
:101E200090E0AD12212C9409EE9400502D90E0A783
:101E3000E475F0011202CF85F082F583E0FD7400B5
:101E40002FF58274F43EF583EDF090E0AEE004F0FF
:101E5000700690E0ADE004F080C6E490E694F000F7
:101E6000000090E0ADA3E090E695F00000000221B4
:101E70001AE5AA30E30302211412219E0000001289
:101E80002171A3F0A3F074F0F59A7400F59B7AF435
:101E900079007EF47F0074F4F59D7400F59EA3E054
:101EA0007004A3E0641E703290F000E0B4F02BA345
:101EB000E0B4F02612165412215590E67C742112DB
:101EC0002137700312212190E0ABE07004A3E0649D
:101ED0000F70E71221BE740F805190E0ADE07004E6
:101EE000A3E06410702D90F000E0B40F26A3E0B4DE
:101EF000012112215590E67B12213370031221211A
:101F000090E0ABE07004A3E0641070E91221BE74AD
:101F100010801890E0ADE07002A3E0701590E09C96
:101F20007440F090E67CF01221BE04F012211A02F7
:101F30002103750D01E50D700302210390E0ADE072
:101F4000FEA3E090E0A912218740030220ECE49078
:101F5000E09C122128ED9FEC9E400A12211AB11E2E
:101F6000500312217F1221AC90E0281221C5700687
:101F700090E0A9E004F090E028E030E20302203F86
:101F8000E4F50C12212990E0AAE09F90E0A9E09EE0
:101F9000401012211AB11E500912219E0000001299
:101FA00021711221ACFF122192EF1221C57006900F
:101FB000E0A9E004F0050CE50CC3940440C590E0F2
:101FC00037E030E72C90E03CE090E06CF090E03DB2
:101FD000E090E06DF090E03EE090E06EF090E03F49
:101FE000E090E06FF090E09CE090E04012175980A4
:101FF00026750E0A74E0F59A743CF59BE490E09C1B
:10200000F07EE07F3C7B01FA7D01121485150EE520
:102010000E6004315D60DD90E09CE04420312831A9
:10202000664010313F000000121D3E50067AF479E0
:1020300000314D90E09C313370023121021F3C9001
:10204000E037E030E73090E06CE090E03CF090E08A
:102050006DE090E03DF090E06EE090E03EF090E0CA
:102060006FE090E03FF090E09CE0FF90E040E044C3
:102070002012175B8026750E0AE490E09CF074E055
:10208000F59D743CF59E7EE0FF121383150EE50E60
:102090006004315D60E390E09CE0442090E040F01B
:1020A00090E029E0FEA3E090E0AB3187501374008C
:1020B0002DF58274F43CF59D74002DF582E582F5D2
:1020C0009EE4F50CE50CC394054003021F3C312946
:1020D0003166400C313F000000121D3E5002314D70
:1020E0003192313370023121050C80D8311AE5AAC2
:1020F00020E00A319E0000003171021F35E4F50D29
:10210000021F3590E0AB3142000000ED90E695F003
:102110000000002290E09C7480F090E6497482F008
:102120002290E0ABE004F022F090E029E0FEA3E092
:10213000FFC322E090E67CF090E0ACE004F0229057
:10214000E029E0FCA3E0FDEC90E694F02274F4F5C5
:102150009D7400F59EE490E0ABF0A3F02290E09C2B
:10216000E0540764072290E0ACE09F90E0ABE09E73
:102170002290E690E0FE90E0ADE04EF0A3E0F0E4C7
:1021800090E0A9F0A3F022FFE0FCA3E0FDC39FECE8
:102190009E22743C250CF582E434E0F5832290E61F
:1021A00091E0FF90E0ADE4F0A3EFF02290E0A9E031
:1021B000FEA3E02400F58274F03EF583E02290E077
:1021C000ABE4F0A322F090E0AAE004F022E490E077
:0521D000ADF0A3F022B8
:00000001FF
